{
  "contractName": "ShieldStaking",
  "abi": [
    {
      "inputs": [
        {
          "internalType": "address",
          "name": "_rewardsToken",
          "type": "address"
        },
        {
          "internalType": "address",
          "name": "_shieldTokenContract",
          "type": "address"
        }
      ],
      "payable": false,
      "stateMutability": "nonpayable",
      "type": "constructor"
    },
    {
      "anonymous": false,
      "inputs": [
        {
          "indexed": true,
          "internalType": "address",
          "name": "user",
          "type": "address"
        },
        {
          "indexed": false,
          "internalType": "uint256",
          "name": "reward",
          "type": "uint256"
        }
      ],
      "name": "ClaimedReward",
      "type": "event"
    },
    {
      "anonymous": false,
      "inputs": [
        {
          "indexed": true,
          "internalType": "address",
          "name": "previousOwner",
          "type": "address"
        },
        {
          "indexed": true,
          "internalType": "address",
          "name": "newOwner",
          "type": "address"
        }
      ],
      "name": "OwnershipTransferred",
      "type": "event"
    },
    {
      "anonymous": false,
      "inputs": [
        {
          "indexed": false,
          "internalType": "address",
          "name": "account",
          "type": "address"
        }
      ],
      "name": "Paused",
      "type": "event"
    },
    {
      "anonymous": false,
      "inputs": [
        {
          "indexed": true,
          "internalType": "address",
          "name": "account",
          "type": "address"
        }
      ],
      "name": "PauserAdded",
      "type": "event"
    },
    {
      "anonymous": false,
      "inputs": [
        {
          "indexed": true,
          "internalType": "address",
          "name": "account",
          "type": "address"
        }
      ],
      "name": "PauserRemoved",
      "type": "event"
    },
    {
      "anonymous": false,
      "inputs": [
        {
          "indexed": false,
          "internalType": "uint256",
          "name": "newDuration",
          "type": "uint256"
        }
      ],
      "name": "RewardPerStakedTokenUpdated",
      "type": "event"
    },
    {
      "anonymous": false,
      "inputs": [
        {
          "indexed": false,
          "internalType": "uint256",
          "name": "newDuration",
          "type": "uint256"
        }
      ],
      "name": "StakeDurationUpdated",
      "type": "event"
    },
    {
      "anonymous": false,
      "inputs": [
        {
          "indexed": true,
          "internalType": "address",
          "name": "user",
          "type": "address"
        },
        {
          "indexed": false,
          "internalType": "uint256",
          "name": "amount",
          "type": "uint256"
        }
      ],
      "name": "Staked",
      "type": "event"
    },
    {
      "anonymous": false,
      "inputs": [
        {
          "indexed": false,
          "internalType": "address",
          "name": "account",
          "type": "address"
        }
      ],
      "name": "Unpaused",
      "type": "event"
    },
    {
      "anonymous": false,
      "inputs": [
        {
          "indexed": true,
          "internalType": "address",
          "name": "user",
          "type": "address"
        },
        {
          "indexed": false,
          "internalType": "uint256",
          "name": "amount",
          "type": "uint256"
        }
      ],
      "name": "Withdrawn",
      "type": "event"
    },
    {
      "constant": false,
      "inputs": [
        {
          "internalType": "address",
          "name": "account",
          "type": "address"
        }
      ],
      "name": "addPauser",
      "outputs": [],
      "payable": false,
      "stateMutability": "nonpayable",
      "type": "function"
    },
    {
      "constant": true,
      "inputs": [],
      "name": "isOwner",
      "outputs": [
        {
          "internalType": "bool",
          "name": "",
          "type": "bool"
        }
      ],
      "payable": false,
      "stateMutability": "view",
      "type": "function"
    },
    {
      "constant": true,
      "inputs": [
        {
          "internalType": "address",
          "name": "account",
          "type": "address"
        }
      ],
      "name": "isPauser",
      "outputs": [
        {
          "internalType": "bool",
          "name": "",
          "type": "bool"
        }
      ],
      "payable": false,
      "stateMutability": "view",
      "type": "function"
    },
    {
      "constant": true,
      "inputs": [],
      "name": "owner",
      "outputs": [
        {
          "internalType": "address",
          "name": "",
          "type": "address"
        }
      ],
      "payable": false,
      "stateMutability": "view",
      "type": "function"
    },
    {
      "constant": false,
      "inputs": [],
      "name": "pause",
      "outputs": [],
      "payable": false,
      "stateMutability": "nonpayable",
      "type": "function"
    },
    {
      "constant": true,
      "inputs": [],
      "name": "paused",
      "outputs": [
        {
          "internalType": "bool",
          "name": "",
          "type": "bool"
        }
      ],
      "payable": false,
      "stateMutability": "view",
      "type": "function"
    },
    {
      "constant": false,
      "inputs": [],
      "name": "renounceOwnership",
      "outputs": [],
      "payable": false,
      "stateMutability": "nonpayable",
      "type": "function"
    },
    {
      "constant": false,
      "inputs": [],
      "name": "renouncePauser",
      "outputs": [],
      "payable": false,
      "stateMutability": "nonpayable",
      "type": "function"
    },
    {
      "constant": true,
      "inputs": [],
      "name": "rewardPerStakedToken",
      "outputs": [
        {
          "internalType": "uint256",
          "name": "",
          "type": "uint256"
        }
      ],
      "payable": false,
      "stateMutability": "view",
      "type": "function"
    },
    {
      "constant": true,
      "inputs": [],
      "name": "rewardsToken",
      "outputs": [
        {
          "internalType": "contract ERC20Mintable",
          "name": "",
          "type": "address"
        }
      ],
      "payable": false,
      "stateMutability": "view",
      "type": "function"
    },
    {
      "constant": true,
      "inputs": [],
      "name": "stakeDuration",
      "outputs": [
        {
          "internalType": "uint256",
          "name": "",
          "type": "uint256"
        }
      ],
      "payable": false,
      "stateMutability": "view",
      "type": "function"
    },
    {
      "constant": true,
      "inputs": [],
      "name": "stakingToken",
      "outputs": [
        {
          "internalType": "contract IERC20",
          "name": "",
          "type": "address"
        }
      ],
      "payable": false,
      "stateMutability": "view",
      "type": "function"
    },
    {
      "constant": true,
      "inputs": [],
      "name": "totalSupply",
      "outputs": [
        {
          "internalType": "uint256",
          "name": "",
          "type": "uint256"
        }
      ],
      "payable": false,
      "stateMutability": "view",
      "type": "function"
    },
    {
      "constant": false,
      "inputs": [
        {
          "internalType": "address",
          "name": "newOwner",
          "type": "address"
        }
      ],
      "name": "transferOwnership",
      "outputs": [],
      "payable": false,
      "stateMutability": "nonpayable",
      "type": "function"
    },
    {
      "constant": false,
      "inputs": [],
      "name": "unpause",
      "outputs": [],
      "payable": false,
      "stateMutability": "nonpayable",
      "type": "function"
    },
    {
      "constant": true,
      "inputs": [
        {
          "internalType": "address",
          "name": "account",
          "type": "address"
        },
        {
          "internalType": "uint256",
          "name": "id",
          "type": "uint256"
        }
      ],
      "name": "accountPaymentPromises",
      "outputs": [
        {
          "components": [
            {
              "internalType": "uint256",
              "name": "time",
              "type": "uint256"
            },
            {
              "internalType": "uint256",
              "name": "amount",
              "type": "uint256"
            }
          ],
          "internalType": "struct ShieldStaking.PaymentPromise",
          "name": "",
          "type": "tuple"
        }
      ],
      "payable": false,
      "stateMutability": "view",
      "type": "function"
    },
    {
      "constant": true,
      "inputs": [
        {
          "internalType": "address",
          "name": "account",
          "type": "address"
        }
      ],
      "name": "accountPaymentPromises",
      "outputs": [
        {
          "components": [
            {
              "internalType": "uint256",
              "name": "time",
              "type": "uint256"
            },
            {
              "internalType": "uint256",
              "name": "amount",
              "type": "uint256"
            }
          ],
          "internalType": "struct ShieldStaking.PaymentPromise[]",
          "name": "",
          "type": "tuple[]"
        }
      ],
      "payable": false,
      "stateMutability": "view",
      "type": "function"
    },
    {
      "constant": false,
      "inputs": [
        {
          "internalType": "uint256",
          "name": "amount",
          "type": "uint256"
        }
      ],
      "name": "stake",
      "outputs": [],
      "payable": false,
      "stateMutability": "nonpayable",
      "type": "function"
    },
    {
      "constant": false,
      "inputs": [
        {
          "internalType": "uint256",
          "name": "id",
          "type": "uint256"
        }
      ],
      "name": "withdraw",
      "outputs": [],
      "payable": false,
      "stateMutability": "nonpayable",
      "type": "function"
    },
    {
      "constant": false,
      "inputs": [
        {
          "internalType": "uint256",
          "name": "_stakeDuration",
          "type": "uint256"
        }
      ],
      "name": "setStakeDuration",
      "outputs": [],
      "payable": false,
      "stateMutability": "nonpayable",
      "type": "function"
    },
    {
      "constant": false,
      "inputs": [
        {
          "internalType": "uint256",
          "name": "_rewardPerStakedToken",
          "type": "uint256"
        }
      ],
      "name": "setRewardPerStakedToken",
      "outputs": [],
      "payable": false,
      "stateMutability": "nonpayable",
      "type": "function"
    }
  ],
  "bytecode": "0x6080604052600160055561012c60065560006008553480156200002157600080fd5b5060405162002bdb38038062002bdb8339818101604052620000479190810190620003d5565b60016000806101000a81548160ff0219169083151502179055506200008162000075620001d760201b60201c565b620001df60201b60201c565b6000600260006101000a81548160ff0219169083151502179055506000620000ae620001d760201b60201c565b905080600260016101000a81548173ffffffffffffffffffffffffffffffffffffffff021916908373ffffffffffffffffffffffffffffffffffffffff1602179055508073ffffffffffffffffffffffffffffffffffffffff16600073ffffffffffffffffffffffffffffffffffffffff167f8be0079c531659141344cd1fd0a4f28419497f9722a3daafe3b4186f6b6457e060405160405180910390a35081600360006101000a81548173ffffffffffffffffffffffffffffffffffffffff021916908373ffffffffffffffffffffffffffffffffffffffff16021790555080600460006101000a81548173ffffffffffffffffffffffffffffffffffffffff021916908373ffffffffffffffffffffffffffffffffffffffff160217905550505062000563565b600033905090565b620001fa8160016200024060201b6200183c1790919060201c565b8073ffffffffffffffffffffffffffffffffffffffff167f6719d08c1888103bea251a4ed56406bd0c3e69723c8a1686e017e7bbe159b6f860405160405180910390a250565b620002528282620002f360201b60201c565b1562000295576040517f08c379a00000000000000000000000000000000000000000000000000000000081526004016200028c90620004c0565b60405180910390fd5b60018260000160008373ffffffffffffffffffffffffffffffffffffffff1673ffffffffffffffffffffffffffffffffffffffff16815260200190815260200160002060006101000a81548160ff0219169083151502179055505050565b60008073ffffffffffffffffffffffffffffffffffffffff168273ffffffffffffffffffffffffffffffffffffffff16141562000367576040517f08c379a00000000000000000000000000000000000000000000000000000000081526004016200035e90620004e2565b60405180910390fd5b8260000160008373ffffffffffffffffffffffffffffffffffffffff1673ffffffffffffffffffffffffffffffffffffffff16815260200190815260200160002060009054906101000a900460ff16905092915050565b600081519050620003cf8162000549565b92915050565b60008060408385031215620003e957600080fd5b6000620003f985828601620003be565b92505060206200040c85828601620003be565b9150509250929050565b600062000425601f8362000504565b91507f526f6c65733a206163636f756e7420616c72656164792068617320726f6c65006000830152602082019050919050565b60006200046760228362000504565b91507f526f6c65733a206163636f756e7420697320746865207a65726f20616464726560008301527f73730000000000000000000000000000000000000000000000000000000000006020830152604082019050919050565b60006020820190508181036000830152620004db8162000416565b9050919050565b60006020820190508181036000830152620004fd8162000458565b9050919050565b600082825260208201905092915050565b6000620005228262000529565b9050919050565b600073ffffffffffffffffffffffffffffffffffffffff82169050919050565b620005548162000515565b81146200056057600080fd5b50565b61266880620005736000396000f3fe608060405234801561001057600080fd5b50600436106101375760003560e01c806372f702f3116100b85780638f32d59b1161007c5780638f32d59b146102cc5780639a94d014146102ea578063a694fc3a1461031a578063d1af0c7d14610336578063f2fde38b14610354578063f978be1a1461037057610137565b806372f702f31461023a5780637bced80b1461025857806382dc1ec4146102885780638456cb59146102a45780638da5cb5b146102ae57610137565b80634b3a2181116100ff5780634b3a2181146101ce5780635a52a94c146101ec5780635c975abb146102085780636ef8d66d14610226578063715018a61461023057610137565b806318160ddd1461013c5780632e1a7d4d1461015a5780633f4ba83a1461017657806340f02ab61461018057806346fbf68e1461019e575b600080fd5b61014461038c565b6040516101519190612450565b60405180910390f35b610174600480360361016f9190810190611a16565b610392565b005b61017e610607565b005b610188610700565b6040516101959190612450565b60405180910390f35b6101b860048036036101b39190810190611988565b610706565b6040516101c591906121c2565b60405180910390f35b6101d6610723565b6040516101e39190612450565b60405180910390f35b61020660048036036102019190810190611a16565b610729565b005b6102106107b3565b60405161021d91906121c2565b60405180910390f35b61022e6107ca565b005b6102386107dc565b005b6102426108e4565b60405161024f91906121f8565b60405180910390f35b610272600480360361026d91908101906119b1565b61090a565b60405161027f9190612435565b60405180910390f35b6102a2600480360361029d9190810190611988565b610991565b005b6102ac6109ec565b005b6102b6610ae6565b6040516102c391906120e1565b60405180910390f35b6102d4610b10565b6040516102e191906121c2565b60405180910390f35b61030460048036036102ff9190810190611988565b610b6f565b60405161031191906121a0565b60405180910390f35b610334600480360361032f9190810190611a16565b610c21565b005b61033e610fc1565b60405161034b91906121dd565b60405180910390f35b61036e60048036036103699190810190611988565b610fe7565b005b61038a60048036036103859190810190611a16565b61103a565b005b60075481565b6000809054906101000a900460ff166103e0576040517f08c379a00000000000000000000000000000000000000000000000000000000081526004016103d7906123f5565b60405180910390fd5b60008060006101000a81548160ff0219169083151502179055506000600960003373ffffffffffffffffffffffffffffffffffffffff1673ffffffffffffffffffffffffffffffffffffffff1681526020019081526020016000209050600081838154811061044b57fe5b90600052602060002090600202019050806000015442116104a1576040517f08c379a0000000000000000000000000000000000000000000000000000000008152600401610498906122d5565b60405180910390fd5b6104ba81600101546007546110c490919063ffffffff16565b600781905550610511338260010154600460009054906101000a900473ffffffffffffffffffffffffffffffffffffffff1673ffffffffffffffffffffffffffffffffffffffff1661110e9092919063ffffffff16565b3373ffffffffffffffffffffffffffffffffffffffff167f7084f5476618d8e60b11ef0d7d3f06914655adb8793e28ff7f018d4c76d505d5826001015460405161055b9190612450565b60405180910390a28160018380549050038154811061057657fe5b906000526020600020906002020182848154811061059057fe5b90600052602060002090600202016000820154816000015560018201548160010155905050818054806105bf57fe5b6001900381819060005260206000209060020201600080820160009055600182016000905550509055505060016000806101000a81548160ff02191690831515021790555050565b6106176106126111ad565b610706565b610656576040517f08c379a000000000000000000000000000000000000000000000000000000000815260040161064d90612275565b60405180910390fd5b600260009054906101000a900460ff166106a5576040517f08c379a000000000000000000000000000000000000000000000000000000000815260040161069c90612235565b60405180910390fd5b6000600260006101000a81548160ff0219169083151502179055507f5db9ee0a495bf2e6ff9c91a7834c1ba4fdd244a5e8aa4e537bd38aeae4b073aa6106e96111ad565b6040516106f691906120fc565b60405180910390a1565b60065481565b600061071c8260016111b590919063ffffffff16565b9050919050565b60055481565b610731610b10565b610770576040517f08c379a000000000000000000000000000000000000000000000000000000000815260040161076790612395565b60405180910390fd5b806005819055507f4bee3f33469ab6bd33dc849157b1776680b77ee10a224ce7bf6426f80f24de456005546040516107a89190612450565b60405180910390a150565b6000600260009054906101000a900460ff16905090565b6107da6107d56111ad565b61127d565b565b6107e4610b10565b610823576040517f08c379a000000000000000000000000000000000000000000000000000000000815260040161081a90612395565b60405180910390fd5b600073ffffffffffffffffffffffffffffffffffffffff16600260019054906101000a900473ffffffffffffffffffffffffffffffffffffffff1673ffffffffffffffffffffffffffffffffffffffff167f8be0079c531659141344cd1fd0a4f28419497f9722a3daafe3b4186f6b6457e060405160405180910390a36000600260016101000a81548173ffffffffffffffffffffffffffffffffffffffff021916908373ffffffffffffffffffffffffffffffffffffffff160217905550565b600460009054906101000a900473ffffffffffffffffffffffffffffffffffffffff1681565b61091261192f565b600960008473ffffffffffffffffffffffffffffffffffffffff1673ffffffffffffffffffffffffffffffffffffffff168152602001908152602001600020828154811061095c57fe5b906000526020600020906002020160405180604001604052908160008201548152602001600182015481525050905092915050565b6109a161099c6111ad565b610706565b6109e0576040517f08c379a00000000000000000000000000000000000000000000000000000000081526004016109d790612275565b60405180910390fd5b6109e9816112d7565b50565b6109fc6109f76111ad565b610706565b610a3b576040517f08c379a0000000000000000000000000000000000000000000000000000000008152600401610a3290612275565b60405180910390fd5b600260009054906101000a900460ff1615610a8b576040517f08c379a0000000000000000000000000000000000000000000000000000000008152600401610a8290612335565b60405180910390fd5b6001600260006101000a81548160ff0219169083151502179055507f62e78cea01bee320cd4e420270b5ea74000d11b0c9f74754ebdbfc544b05a258610acf6111ad565b604051610adc91906120fc565b60405180910390a1565b6000600260019054906101000a900473ffffffffffffffffffffffffffffffffffffffff16905090565b6000600260019054906101000a900473ffffffffffffffffffffffffffffffffffffffff1673ffffffffffffffffffffffffffffffffffffffff16610b536111ad565b73ffffffffffffffffffffffffffffffffffffffff1614905090565b6060600960008373ffffffffffffffffffffffffffffffffffffffff1673ffffffffffffffffffffffffffffffffffffffff168152602001908152602001600020805480602002602001604051908101604052809291908181526020016000905b82821015610c1657838290600052602060002090600202016040518060400160405290816000820154815260200160018201548152505081526020019060010190610bd0565b505050509050919050565b6000809054906101000a900460ff16610c6f576040517f08c379a0000000000000000000000000000000000000000000000000000000008152600401610c66906123f5565b60405180910390fd5b60008060006101000a81548160ff021916908315150217905550600260009054906101000a900460ff1615610cd9576040517f08c379a0000000000000000000000000000000000000000000000000000000008152600401610cd090612335565b60405180910390fd5b60008111610d1c576040517f08c379a0000000000000000000000000000000000000000000000000000000008152600401610d13906122b5565b60405180910390fd5b610d318160075461133190919063ffffffff16565b600781905550600960003373ffffffffffffffffffffffffffffffffffffffff1673ffffffffffffffffffffffffffffffffffffffff1681526020019081526020016000206040518060400160405280610d966006544261133190919063ffffffff16565b815260200183815250908060018154018082558091505090600182039060005260206000209060020201600090919290919091506000820151816000015560208201518160010155505050610e30333083600460009054906101000a900473ffffffffffffffffffffffffffffffffffffffff1673ffffffffffffffffffffffffffffffffffffffff16611386909392919063ffffffff16565b600360009054906101000a900473ffffffffffffffffffffffffffffffffffffffff1673ffffffffffffffffffffffffffffffffffffffff166340c10f1933610e846005548561142890919063ffffffff16565b6040518363ffffffff1660e01b8152600401610ea1929190612117565b602060405180830381600087803b158015610ebb57600080fd5b505af1158015610ecf573d6000803e3d6000fd5b505050506040513d601f19601f82011682018060405250610ef391908101906119ed565b503373ffffffffffffffffffffffffffffffffffffffff167f9e71bc8eea02a63969f509818f2dafb9254532904319f9dbda79b67bd34a5f3d82604051610f3a9190612450565b60405180910390a23373ffffffffffffffffffffffffffffffffffffffff167fd0813ff03c470dcc7baa9ce36914dc2febdfd276d639deffaac383fd3db42ba3610f8f6005548461142890919063ffffffff16565b604051610f9c9190612450565b60405180910390a260016000806101000a81548160ff02191690831515021790555050565b600360009054906101000a900473ffffffffffffffffffffffffffffffffffffffff1681565b610fef610b10565b61102e576040517f08c379a000000000000000000000000000000000000000000000000000000000815260040161102590612395565b60405180910390fd5b61103781611498565b50565b611042610b10565b611081576040517f08c379a000000000000000000000000000000000000000000000000000000000815260040161107890612395565b60405180910390fd5b806006819055507f89385ed3f4a942c20c599a15bc11eb4ddf833320cb60b3714b772bd7afcd79316006546040516110b99190612450565b60405180910390a150565b600061110683836040518060400160405280601e81526020017f536166654d6174683a207375627472616374696f6e206f766572666c6f7700008152506115c8565b905092915050565b6111a8838473ffffffffffffffffffffffffffffffffffffffff1663a9059cbb905060e01b8484604051602401611146929190612177565b604051602081830303815290604052907bffffffffffffffffffffffffffffffffffffffffffffffffffffffff19166020820180517bffffffffffffffffffffffffffffffffffffffffffffffffffffffff8381831617835250505050611623565b505050565b600033905090565b60008073ffffffffffffffffffffffffffffffffffffffff168273ffffffffffffffffffffffffffffffffffffffff161415611226576040517f08c379a000000000000000000000000000000000000000000000000000000000815260040161121d906123b5565b60405180910390fd5b8260000160008373ffffffffffffffffffffffffffffffffffffffff1673ffffffffffffffffffffffffffffffffffffffff16815260200190815260200160002060009054906101000a900460ff16905092915050565b61129181600161179590919063ffffffff16565b8073ffffffffffffffffffffffffffffffffffffffff167fcd265ebaf09df2871cc7bd4133404a235ba12eff2041bb89d9c714a2621c7c7e60405160405180910390a250565b6112eb81600161183c90919063ffffffff16565b8073ffffffffffffffffffffffffffffffffffffffff167f6719d08c1888103bea251a4ed56406bd0c3e69723c8a1686e017e7bbe159b6f860405160405180910390a250565b60008082840190508381101561137c576040517f08c379a0000000000000000000000000000000000000000000000000000000008152600401611373906122f5565b60405180910390fd5b8091505092915050565b611422848573ffffffffffffffffffffffffffffffffffffffff166323b872dd905060e01b8585856040516024016113c093929190612140565b604051602081830303815290604052907bffffffffffffffffffffffffffffffffffffffffffffffffffffffff19166020820180517bffffffffffffffffffffffffffffffffffffffffffffffffffffffff8381831617835250505050611623565b50505050565b60008083141561143b5760009050611492565b600082840290508284828161144c57fe5b041461148d576040517f08c379a000000000000000000000000000000000000000000000000000000000815260040161148490612375565b60405180910390fd5b809150505b92915050565b600073ffffffffffffffffffffffffffffffffffffffff168173ffffffffffffffffffffffffffffffffffffffff161415611508576040517f08c379a00000000000000000000000000000000000000000000000000000000081526004016114ff90612295565b60405180910390fd5b8073ffffffffffffffffffffffffffffffffffffffff16600260019054906101000a900473ffffffffffffffffffffffffffffffffffffffff1673ffffffffffffffffffffffffffffffffffffffff167f8be0079c531659141344cd1fd0a4f28419497f9722a3daafe3b4186f6b6457e060405160405180910390a380600260016101000a81548173ffffffffffffffffffffffffffffffffffffffff021916908373ffffffffffffffffffffffffffffffffffffffff16021790555050565b6000838311158290611610576040517f08c379a00000000000000000000000000000000000000000000000000000000081526004016116079190612213565b60405180910390fd5b5060008385039050809150509392505050565b6116428273ffffffffffffffffffffffffffffffffffffffff166118e4565b611681576040517f08c379a000000000000000000000000000000000000000000000000000000000815260040161167890612415565b60405180910390fd5b600060608373ffffffffffffffffffffffffffffffffffffffff16836040516116aa91906120ca565b6000604051808303816000865af19150503d80600081146116e7576040519150601f19603f3d011682016040523d82523d6000602084013e6116ec565b606091505b509150915081611731576040517f08c379a000000000000000000000000000000000000000000000000000000000815260040161172890612315565b60405180910390fd5b60008151111561178f578080602001905161174f91908101906119ed565b61178e576040517f08c379a0000000000000000000000000000000000000000000000000000000008152600401611785906123d5565b60405180910390fd5b5b50505050565b61179f82826111b5565b6117de576040517f08c379a00000000000000000000000000000000000000000000000000000000081526004016117d590612355565b60405180910390fd5b60008260000160008373ffffffffffffffffffffffffffffffffffffffff1673ffffffffffffffffffffffffffffffffffffffff16815260200190815260200160002060006101000a81548160ff0219169083151502179055505050565b61184682826111b5565b15611886576040517f08c379a000000000000000000000000000000000000000000000000000000000815260040161187d90612255565b60405180910390fd5b60018260000160008373ffffffffffffffffffffffffffffffffffffffff1673ffffffffffffffffffffffffffffffffffffffff16815260200190815260200160002060006101000a81548160ff0219169083151502179055505050565b60008060007fc5d2460186f7233c927e7db2dcc703c0e500b653ca82273b7bfad8045d85a47060001b9050833f915080821415801561192657506000801b8214155b92505050919050565b604051806040016040528060008152602001600081525090565b600081359050611958816125e0565b92915050565b60008151905061196d816125f7565b92915050565b6000813590506119828161260e565b92915050565b60006020828403121561199a57600080fd5b60006119a884828501611949565b91505092915050565b600080604083850312156119c457600080fd5b60006119d285828601611949565b92505060206119e385828601611973565b9150509250929050565b6000602082840312156119ff57600080fd5b6000611a0d8482850161195e565b91505092915050565b600060208284031215611a2857600080fd5b6000611a3684828501611973565b91505092915050565b6000611a4b838361207d565b60408301905092915050565b611a608161251e565b82525050565b611a6f816124d6565b82525050565b6000611a808261247b565b611a8a81856124a9565b9350611a958361246b565b8060005b83811015611ac6578151611aad8882611a3f565b9750611ab88361249c565b925050600181019050611a99565b5085935050505092915050565b611adc816124e8565b82525050565b6000611aed82612486565b611af781856124ba565b9350611b0781856020860161259c565b80840191505092915050565b611b1c81612530565b82525050565b611b2b81612554565b82525050565b6000611b3c82612491565b611b4681856124c5565b9350611b5681856020860161259c565b611b5f816125cf565b840191505092915050565b6000611b776014836124c5565b91507f5061757361626c653a206e6f74207061757365640000000000000000000000006000830152602082019050919050565b6000611bb7601f836124c5565b91507f526f6c65733a206163636f756e7420616c72656164792068617320726f6c65006000830152602082019050919050565b6000611bf76030836124c5565b91507f506175736572526f6c653a2063616c6c657220646f6573206e6f74206861766560008301527f207468652050617573657220726f6c65000000000000000000000000000000006020830152604082019050919050565b6000611c5d6026836124c5565b91507f4f776e61626c653a206e6577206f776e657220697320746865207a65726f206160008301527f64647265737300000000000000000000000000000000000000000000000000006020830152604082019050919050565b6000611cc3600e836124c5565b91507f43616e6e6f74207374616b6520300000000000000000000000000000000000006000830152602082019050919050565b6000611d036019836124c5565b91507f43616e6e6f74207769746864726177207269676874206e6f77000000000000006000830152602082019050919050565b6000611d43601b836124c5565b91507f536166654d6174683a206164646974696f6e206f766572666c6f7700000000006000830152602082019050919050565b6000611d836020836124c5565b91507f5361666545524332303a206c6f772d6c6576656c2063616c6c206661696c65646000830152602082019050919050565b6000611dc36010836124c5565b91507f5061757361626c653a20706175736564000000000000000000000000000000006000830152602082019050919050565b6000611e036021836124c5565b91507f526f6c65733a206163636f756e7420646f6573206e6f74206861766520726f6c60008301527f65000000000000000000000000000000000000000000000000000000000000006020830152604082019050919050565b6000611e696021836124c5565b91507f536166654d6174683a206d756c7469706c69636174696f6e206f766572666c6f60008301527f77000000000000000000000000000000000000000000000000000000000000006020830152604082019050919050565b6000611ecf6020836124c5565b91507f4f776e61626c653a2063616c6c6572206973206e6f7420746865206f776e65726000830152602082019050919050565b6000611f0f6022836124c5565b91507f526f6c65733a206163636f756e7420697320746865207a65726f20616464726560008301527f73730000000000000000000000000000000000000000000000000000000000006020830152604082019050919050565b6000611f75602a836124c5565b91507f5361666545524332303a204552433230206f7065726174696f6e20646964206e60008301527f6f742073756363656564000000000000000000000000000000000000000000006020830152604082019050919050565b6000611fdb601f836124c5565b91507f5265656e7472616e637947756172643a207265656e7472616e742063616c6c006000830152602082019050919050565b600061201b601f836124c5565b91507f5361666545524332303a2063616c6c20746f206e6f6e2d636f6e7472616374006000830152602082019050919050565b60408201600082015161206460008501826120ac565b50602082015161207760208501826120ac565b50505050565b60408201600082015161209360008501826120ac565b5060208201516120a660208501826120ac565b50505050565b6120b581612514565b82525050565b6120c481612514565b82525050565b60006120d68284611ae2565b915081905092915050565b60006020820190506120f66000830184611a66565b92915050565b60006020820190506121116000830184611a57565b92915050565b600060408201905061212c6000830185611a57565b61213960208301846120bb565b9392505050565b60006060820190506121556000830186611a66565b6121626020830185611a66565b61216f60408301846120bb565b949350505050565b600060408201905061218c6000830185611a66565b61219960208301846120bb565b9392505050565b600060208201905081810360008301526121ba8184611a75565b905092915050565b60006020820190506121d76000830184611ad3565b92915050565b60006020820190506121f26000830184611b13565b92915050565b600060208201905061220d6000830184611b22565b92915050565b6000602082019050818103600083015261222d8184611b31565b905092915050565b6000602082019050818103600083015261224e81611b6a565b9050919050565b6000602082019050818103600083015261226e81611baa565b9050919050565b6000602082019050818103600083015261228e81611bea565b9050919050565b600060208201905081810360008301526122ae81611c50565b9050919050565b600060208201905081810360008301526122ce81611cb6565b9050919050565b600060208201905081810360008301526122ee81611cf6565b9050919050565b6000602082019050818103600083015261230e81611d36565b9050919050565b6000602082019050818103600083015261232e81611d76565b9050919050565b6000602082019050818103600083015261234e81611db6565b9050919050565b6000602082019050818103600083015261236e81611df6565b9050919050565b6000602082019050818103600083015261238e81611e5c565b9050919050565b600060208201905081810360008301526123ae81611ec2565b9050919050565b600060208201905081810360008301526123ce81611f02565b9050919050565b600060208201905081810360008301526123ee81611f68565b9050919050565b6000602082019050818103600083015261240e81611fce565b9050919050565b6000602082019050818103600083015261242e8161200e565b9050919050565b600060408201905061244a600083018461204e565b92915050565b600060208201905061246560008301846120bb565b92915050565b6000819050602082019050919050565b600081519050919050565b600081519050919050565b600081519050919050565b6000602082019050919050565b600082825260208201905092915050565b600081905092915050565b600082825260208201905092915050565b60006124e1826124f4565b9050919050565b60008115159050919050565b600073ffffffffffffffffffffffffffffffffffffffff82169050919050565b6000819050919050565b600061252982612578565b9050919050565b600061253b82612542565b9050919050565b600061254d826124f4565b9050919050565b600061255f82612566565b9050919050565b6000612571826124f4565b9050919050565b60006125838261258a565b9050919050565b6000612595826124f4565b9050919050565b60005b838110156125ba57808201518184015260208101905061259f565b838111156125c9576000848401525b50505050565b6000601f19601f8301169050919050565b6125e9816124d6565b81146125f457600080fd5b50565b612600816124e8565b811461260b57600080fd5b50565b61261781612514565b811461262257600080fd5b5056fea365627a7a723158203708795f9df409bc04905a8e39e2374f71945d9eb91e35ddc77f021395ed767f6c6578706572696d656e74616cf564736f6c63430005100040",
  "source": "// SPDX-License-Identifier: MIT\npragma solidity >=0.4.21 <0.7.0;\npragma experimental ABIEncoderV2;\n\nimport \"@openzeppelin/contracts/token/ERC20/ERC20.sol\";\nimport \"@openzeppelin/contracts/token/ERC20/SafeERC20.sol\";\nimport \"@openzeppelin/contracts/token/ERC20/ERC20Detailed.sol\";\nimport \"@openzeppelin/contracts/token/ERC20/ERC20Mintable.sol\";\nimport \"@openzeppelin/contracts/math/SafeMath.sol\";\nimport \"@openzeppelin/contracts/utils/ReentrancyGuard.sol\";\nimport \"@openzeppelin/contracts/lifecycle/Pausable.sol\";\nimport \"@openzeppelin/contracts/ownership/Ownable.sol\";\n\n\ncontract ShieldStaking is ReentrancyGuard, Pausable, Ownable {\n  using SafeMath for uint256;\n  using SafeERC20 for IERC20;\n\n  /* ============== STRUCTS ============== */\n  struct PaymentPromise {\n    uint256 time;\n    uint256 amount;\n  }\n\n  /* ========== STATE VARIABLES ========== */\n\n  //TOKENS\n  ERC20Mintable public rewardsToken;\n  IERC20 public stakingToken;\n\n  //CONFIG VARIABLES\n  uint256 public rewardPerStakedToken = 1;\n  uint256 public stakeDuration = 5 minutes;\n\n  //STORAGE\n  uint256 public totalSupply;\n\n  uint256 private _paymetPromiseId = 0;\n  mapping(address => PaymentPromise[]) private _accountPaymentPromises;\n\n  /* ========== CONSTRUCTOR ========== */\n\n  constructor(\n    address _rewardsToken,\n    address _shieldTokenContract\n  ) public {\n    rewardsToken = ERC20Mintable(_rewardsToken);\n    stakingToken = IERC20(_shieldTokenContract);\n  }\n\n  /* ========== VIEWS ========== */\n  function accountPaymentPromises(address account, uint256 id) external view returns(PaymentPromise memory) {\n    return _accountPaymentPromises[account][id];\n  }\n\n  function accountPaymentPromises(address account) external view returns(PaymentPromise[] memory) {\n    return _accountPaymentPromises[account];\n  }\n\n  /* ========== MUTATIVE FUNCTIONS ========== */\n  function stake(uint256 amount) external nonReentrant whenNotPaused {\n    require(amount > 0, \"Cannot stake 0\");\n    totalSupply = totalSupply.add(amount);\n\n    _accountPaymentPromises[msg.sender].push(PaymentPromise(now.add(stakeDuration), amount));\n\n    stakingToken.safeTransferFrom(msg.sender, address(this), amount);\n    rewardsToken.mint(msg.sender, amount.mul(rewardPerStakedToken));\n    emit Staked(msg.sender, amount);\n    emit ClaimedReward(msg.sender, amount.mul(rewardPerStakedToken));\n  }\n\n  function withdraw(uint256 id) external nonReentrant {\n    PaymentPromise[] storage promises = _accountPaymentPromises[msg.sender];\n    PaymentPromise storage payment = promises[id];\n    require(now > payment.time, \"Cannot withdraw right now\");\n\n    totalSupply = totalSupply.sub(payment.amount);\n    stakingToken.safeTransfer(msg.sender,  payment.amount);\n    emit Withdrawn(msg.sender,  payment.amount);\n\n    // Delete payment promise\n    // Pending payments Id's will change, so client should fetch the accountPaymentPromises again\n    promises[id] = promises[promises.length - 1];\n    promises.pop();\n  }\n\n  /* ========== RESTRICTED FUNCTIONS ========== */\n\n  /**\n   * Defines how long the staked tokens will be locked\n   */\n  function setStakeDuration(uint256 _stakeDuration) external onlyOwner {\n    stakeDuration = _stakeDuration;\n    emit StakeDurationUpdated(stakeDuration);\n  }\n\n  /**\n   * Defines how much reward tokens you will get at the time of staking per each staked token\n   */\n  function setRewardPerStakedToken(uint256 _rewardPerStakedToken) external onlyOwner {\n    rewardPerStakedToken = _rewardPerStakedToken;\n    emit RewardPerStakedTokenUpdated(rewardPerStakedToken);\n  }\n  /* ========== PRIVATE FUNCTIONS ============ */\n\n\n  /* ========== MODIFIERS ========== */\n\n\n  /* ========== EVENTS ========== */\n\n  event Staked(address indexed user, uint256 amount);\n  event Withdrawn(address indexed user, uint256 amount);\n  event ClaimedReward(address indexed user, uint256 reward);\n  event StakeDurationUpdated(uint256 newDuration);\n  event RewardPerStakedTokenUpdated(uint256 newDuration);\n}\n\n\n",
  "sourcePath": "P:\\trabajo\\PKN\\Crypto\\Ring Ecosystem\\contracts\\staking\\ShieldStaking.sol",
  "compiler": {
    "name": "solc",
    "version": "0.5.16+commit.9c3226ce.Emscripten.clang"
  },
  "schemaVersion": "3.4.5",
  "updatedAt": "2022-04-01T07:11:46.842Z",
  "networkType": "ethereum",
  "devdoc": {
    "methods": {
      "isOwner()": {
        "details": "Returns true if the caller is the current owner."
      },
      "owner()": {
        "details": "Returns the address of the current owner."
      },
      "pause()": {
        "details": "Called by a pauser to pause, triggers stopped state."
      },
      "paused()": {
        "details": "Returns true if the contract is paused, and false otherwise."
      },
      "renounceOwnership()": {
        "details": "Leaves the contract without owner. It will not be possible to call `onlyOwner` functions anymore. Can only be called by the current owner.     * NOTE: Renouncing ownership will leave the contract without an owner, thereby removing any functionality that is only available to the owner."
      },
      "transferOwnership(address)": {
        "details": "Transfers ownership of the contract to a new account (`newOwner`). Can only be called by the current owner."
      },
      "unpause()": {
        "details": "Called by a pauser to unpause, returns to normal state."
      }
    }
  },
  "userdoc": {
    "methods": {
      "setRewardPerStakedToken(uint256)": {
        "notice": "Defines how much reward tokens you will get at the time of staking per each staked token"
      },
      "setStakeDuration(uint256)": {
        "notice": "Defines how long the staked tokens will be locked"
      }
    }
  }
}