{
  "contractName": "ShieldMarketplace",
  "abi": [
    {
      "inputs": [
        {
          "internalType": "address",
          "name": "_shieldTokenContract",
          "type": "address"
        },
        {
          "internalType": "address",
          "name": "_shieldNFTContract",
          "type": "address"
        },
        {
          "internalType": "address",
          "name": "_forgeTokenContract",
          "type": "address"
        }
      ],
      "payable": false,
      "stateMutability": "nonpayable",
      "type": "constructor"
    },
    {
      "anonymous": false,
      "inputs": [
        {
          "indexed": false,
          "internalType": "uint256",
          "name": "itemId",
          "type": "uint256"
        }
      ],
      "name": "AddedItem",
      "type": "event"
    },
    {
      "anonymous": false,
      "inputs": [
        {
          "indexed": false,
          "internalType": "uint256",
          "name": "itemId",
          "type": "uint256"
        }
      ],
      "name": "BoughtItem",
      "type": "event"
    },
    {
      "anonymous": false,
      "inputs": [
        {
          "indexed": true,
          "internalType": "address",
          "name": "previousOwner",
          "type": "address"
        },
        {
          "indexed": true,
          "internalType": "address",
          "name": "newOwner",
          "type": "address"
        }
      ],
      "name": "OwnershipTransferred",
      "type": "event"
    },
    {
      "anonymous": false,
      "inputs": [
        {
          "indexed": false,
          "internalType": "address",
          "name": "account",
          "type": "address"
        }
      ],
      "name": "Paused",
      "type": "event"
    },
    {
      "anonymous": false,
      "inputs": [
        {
          "indexed": true,
          "internalType": "address",
          "name": "account",
          "type": "address"
        }
      ],
      "name": "PauserAdded",
      "type": "event"
    },
    {
      "anonymous": false,
      "inputs": [
        {
          "indexed": true,
          "internalType": "address",
          "name": "account",
          "type": "address"
        }
      ],
      "name": "PauserRemoved",
      "type": "event"
    },
    {
      "anonymous": false,
      "inputs": [
        {
          "indexed": false,
          "internalType": "uint256",
          "name": "itemId",
          "type": "uint256"
        },
        {
          "indexed": false,
          "internalType": "uint256",
          "name": "price",
          "type": "uint256"
        }
      ],
      "name": "PriceSet",
      "type": "event"
    },
    {
      "anonymous": false,
      "inputs": [
        {
          "indexed": false,
          "internalType": "uint256",
          "name": "itemId",
          "type": "uint256"
        }
      ],
      "name": "RemovedItem",
      "type": "event"
    },
    {
      "anonymous": false,
      "inputs": [
        {
          "indexed": false,
          "internalType": "address",
          "name": "account",
          "type": "address"
        }
      ],
      "name": "Unpaused",
      "type": "event"
    },
    {
      "constant": false,
      "inputs": [
        {
          "internalType": "address",
          "name": "account",
          "type": "address"
        }
      ],
      "name": "addPauser",
      "outputs": [],
      "payable": false,
      "stateMutability": "nonpayable",
      "type": "function"
    },
    {
      "constant": true,
      "inputs": [],
      "name": "forgeTokenContract",
      "outputs": [
        {
          "internalType": "contract IERC20",
          "name": "",
          "type": "address"
        }
      ],
      "payable": false,
      "stateMutability": "view",
      "type": "function"
    },
    {
      "constant": true,
      "inputs": [],
      "name": "isOwner",
      "outputs": [
        {
          "internalType": "bool",
          "name": "",
          "type": "bool"
        }
      ],
      "payable": false,
      "stateMutability": "view",
      "type": "function"
    },
    {
      "constant": true,
      "inputs": [
        {
          "internalType": "address",
          "name": "account",
          "type": "address"
        }
      ],
      "name": "isPauser",
      "outputs": [
        {
          "internalType": "bool",
          "name": "",
          "type": "bool"
        }
      ],
      "payable": false,
      "stateMutability": "view",
      "type": "function"
    },
    {
      "constant": true,
      "inputs": [],
      "name": "owner",
      "outputs": [
        {
          "internalType": "address",
          "name": "",
          "type": "address"
        }
      ],
      "payable": false,
      "stateMutability": "view",
      "type": "function"
    },
    {
      "constant": false,
      "inputs": [],
      "name": "pause",
      "outputs": [],
      "payable": false,
      "stateMutability": "nonpayable",
      "type": "function"
    },
    {
      "constant": true,
      "inputs": [],
      "name": "paused",
      "outputs": [
        {
          "internalType": "bool",
          "name": "",
          "type": "bool"
        }
      ],
      "payable": false,
      "stateMutability": "view",
      "type": "function"
    },
    {
      "constant": false,
      "inputs": [],
      "name": "renounceOwnership",
      "outputs": [],
      "payable": false,
      "stateMutability": "nonpayable",
      "type": "function"
    },
    {
      "constant": false,
      "inputs": [],
      "name": "renouncePauser",
      "outputs": [],
      "payable": false,
      "stateMutability": "nonpayable",
      "type": "function"
    },
    {
      "constant": true,
      "inputs": [],
      "name": "shieldNFTContract",
      "outputs": [
        {
          "internalType": "contract IERC721Shield",
          "name": "",
          "type": "address"
        }
      ],
      "payable": false,
      "stateMutability": "view",
      "type": "function"
    },
    {
      "constant": true,
      "inputs": [],
      "name": "shieldTokenContract",
      "outputs": [
        {
          "internalType": "contract IERC20",
          "name": "",
          "type": "address"
        }
      ],
      "payable": false,
      "stateMutability": "view",
      "type": "function"
    },
    {
      "constant": false,
      "inputs": [
        {
          "internalType": "address",
          "name": "newOwner",
          "type": "address"
        }
      ],
      "name": "transferOwnership",
      "outputs": [],
      "payable": false,
      "stateMutability": "nonpayable",
      "type": "function"
    },
    {
      "constant": false,
      "inputs": [],
      "name": "unpause",
      "outputs": [],
      "payable": false,
      "stateMutability": "nonpayable",
      "type": "function"
    },
    {
      "constant": false,
      "inputs": [
        {
          "internalType": "address",
          "name": "_operator",
          "type": "address"
        },
        {
          "internalType": "address",
          "name": "_from",
          "type": "address"
        },
        {
          "internalType": "uint256",
          "name": "_tokenId",
          "type": "uint256"
        },
        {
          "internalType": "bytes",
          "name": "_data",
          "type": "bytes"
        }
      ],
      "name": "onERC721Received",
      "outputs": [
        {
          "internalType": "bytes4",
          "name": "",
          "type": "bytes4"
        }
      ],
      "payable": false,
      "stateMutability": "nonpayable",
      "type": "function"
    },
    {
      "constant": true,
      "inputs": [
        {
          "internalType": "uint256",
          "name": "id",
          "type": "uint256"
        }
      ],
      "name": "marketItem",
      "outputs": [
        {
          "components": [
            {
              "internalType": "uint256",
              "name": "marketId",
              "type": "uint256"
            },
            {
              "internalType": "uint256",
              "name": "contractTokenId",
              "type": "uint256"
            },
            {
              "internalType": "uint256",
              "name": "price",
              "type": "uint256"
            },
            {
              "internalType": "address",
              "name": "seller",
              "type": "address"
            }
          ],
          "internalType": "struct ShieldMarketplace.ShieldMarketItem",
          "name": "",
          "type": "tuple"
        }
      ],
      "payable": false,
      "stateMutability": "view",
      "type": "function"
    },
    {
      "constant": true,
      "inputs": [],
      "name": "marketItemList",
      "outputs": [
        {
          "components": [
            {
              "internalType": "uint256",
              "name": "marketId",
              "type": "uint256"
            },
            {
              "internalType": "uint256",
              "name": "contractTokenId",
              "type": "uint256"
            },
            {
              "internalType": "uint256",
              "name": "price",
              "type": "uint256"
            },
            {
              "internalType": "address",
              "name": "seller",
              "type": "address"
            }
          ],
          "internalType": "struct ShieldMarketplace.ShieldMarketItem[]",
          "name": "",
          "type": "tuple[]"
        }
      ],
      "payable": false,
      "stateMutability": "view",
      "type": "function"
    },
    {
      "constant": false,
      "inputs": [
        {
          "internalType": "uint256",
          "name": "id",
          "type": "uint256"
        }
      ],
      "name": "buyNFT",
      "outputs": [],
      "payable": false,
      "stateMutability": "nonpayable",
      "type": "function"
    },
    {
      "constant": false,
      "inputs": [
        {
          "internalType": "uint256",
          "name": "id",
          "type": "uint256"
        }
      ],
      "name": "removeNFT",
      "outputs": [],
      "payable": false,
      "stateMutability": "nonpayable",
      "type": "function"
    },
    {
      "constant": false,
      "inputs": [
        {
          "internalType": "uint256",
          "name": "contractTokenId",
          "type": "uint256"
        },
        {
          "internalType": "uint256",
          "name": "price",
          "type": "uint256"
        }
      ],
      "name": "addNFT",
      "outputs": [],
      "payable": false,
      "stateMutability": "nonpayable",
      "type": "function"
    },
    {
      "constant": false,
      "inputs": [
        {
          "internalType": "uint256",
          "name": "id",
          "type": "uint256"
        },
        {
          "internalType": "uint256",
          "name": "price",
          "type": "uint256"
        }
      ],
      "name": "setPrice",
      "outputs": [],
      "payable": false,
      "stateMutability": "nonpayable",
      "type": "function"
    },
    {
      "constant": false,
      "inputs": [],
      "name": "cleanAll",
      "outputs": [],
      "payable": false,
      "stateMutability": "nonpayable",
      "type": "function"
    }
  ],
  "bytecode": "0x60806040523480156200001157600080fd5b506040516200331638038062003316833981810160405262000037919081019062000407565b60016000806101000a81548160ff02191690831515021790555062000071620000656200020960201b60201c565b6200021160201b60201c565b6000600260006101000a81548160ff02191690831515021790555060006200009e6200020960201b60201c565b905080600260016101000a81548173ffffffffffffffffffffffffffffffffffffffff021916908373ffffffffffffffffffffffffffffffffffffffff1602179055508073ffffffffffffffffffffffffffffffffffffffff16600073ffffffffffffffffffffffffffffffffffffffff167f8be0079c531659141344cd1fd0a4f28419497f9722a3daafe3b4186f6b6457e060405160405180910390a35080600660006101000a81548173ffffffffffffffffffffffffffffffffffffffff021916908373ffffffffffffffffffffffffffffffffffffffff16021790555082600760006101000a81548173ffffffffffffffffffffffffffffffffffffffff021916908373ffffffffffffffffffffffffffffffffffffffff16021790555081600860006101000a81548173ffffffffffffffffffffffffffffffffffffffff021916908373ffffffffffffffffffffffffffffffffffffffff160217905550505050620005aa565b600033905090565b6200022c8160016200027260201b62001c8e1790919060201c565b8073ffffffffffffffffffffffffffffffffffffffff167f6719d08c1888103bea251a4ed56406bd0c3e69723c8a1686e017e7bbe159b6f860405160405180910390a250565b6200028482826200032560201b60201c565b15620002c7576040517f08c379a0000000000000000000000000000000000000000000000000000000008152600401620002be9062000507565b60405180910390fd5b60018260000160008373ffffffffffffffffffffffffffffffffffffffff1673ffffffffffffffffffffffffffffffffffffffff16815260200190815260200160002060006101000a81548160ff0219169083151502179055505050565b60008073ffffffffffffffffffffffffffffffffffffffff168273ffffffffffffffffffffffffffffffffffffffff16141562000399576040517f08c379a0000000000000000000000000000000000000000000000000000000008152600401620003909062000529565b60405180910390fd5b8260000160008373ffffffffffffffffffffffffffffffffffffffff1673ffffffffffffffffffffffffffffffffffffffff16815260200190815260200160002060009054906101000a900460ff16905092915050565b600081519050620004018162000590565b92915050565b6000806000606084860312156200041d57600080fd5b60006200042d86828701620003f0565b93505060206200044086828701620003f0565b92505060406200045386828701620003f0565b9150509250925092565b60006200046c601f836200054b565b91507f526f6c65733a206163636f756e7420616c72656164792068617320726f6c65006000830152602082019050919050565b6000620004ae6022836200054b565b91507f526f6c65733a206163636f756e7420697320746865207a65726f20616464726560008301527f73730000000000000000000000000000000000000000000000000000000000006020830152604082019050919050565b6000602082019050818103600083015262000522816200045d565b9050919050565b6000602082019050818103600083015262000544816200049f565b9050919050565b600082825260208201905092915050565b6000620005698262000570565b9050919050565b600073ffffffffffffffffffffffffffffffffffffffff82169050919050565b6200059b816200055c565b8114620005a757600080fd5b50565b612d5c80620005ba6000396000f3fe608060405234801561001057600080fd5b50600436106101375760003560e01c80638da5cb5b116100b8578063ee4739cb1161007c578063ee4739cb146102de578063f2fde38b146102fa578063f632056714610316578063f7d9757714610320578063f95137361461033c578063fca0ec351461035a57610137565b80638da5cb5b1461024a5780638f32d59b14610268578063aef5da3114610286578063b532b95d146102a4578063d3e69604146102c057610137565b80635c975abb116100ff5780635c975abb146101f25780636ef8d66d14610210578063715018a61461021a57806382dc1ec4146102245780638456cb591461024057610137565b8063150b7a021461013c57806322d4efd81461016c5780633f4ba83a1461019c57806346fbf68e146101a657806351ed8288146101d6575b600080fd5b61015660048036036101519190810190611f29565b610378565b6040516101639190612819565b60405180910390f35b61018660048036036101819190810190611fcd565b61038c565b6040516101939190612a6c565b60405180910390f35b6101a461042d565b005b6101c060048036036101bb9190810190611f00565b610526565b6040516101cd91906127fe565b60405180910390f35b6101f060048036036101eb9190810190611fcd565b610543565b005b6101fa6107d2565b60405161020791906127fe565b60405180910390f35b6102186107e9565b005b6102226107fb565b005b61023e60048036036102399190810190611f00565b610903565b005b61024861095e565b005b610252610a58565b60405161025f9190612701565b60405180910390f35b610270610a82565b60405161027d91906127fe565b60405180910390f35b61028e610ae1565b60405161029b91906127dc565b60405180910390f35b6102be60048036036102b9919081019061201f565b610c8f565b005b6102c8611038565b6040516102d59190612834565b60405180910390f35b6102f860048036036102f39190810190611fcd565b61105e565b005b610314600480360361030f9190810190611f00565b61125a565b005b61031e6112ad565b005b61033a6004803603610335919081019061201f565b6114aa565b005b610344611642565b6040516103519190612834565b60405180910390f35b610362611668565b60405161036f919061284f565b60405180910390f35b600063150b7a0260e01b9050949350505050565b610394611ddc565b600560008381526020019081526020016000206040518060800160405290816000820154815260200160018201548152602001600282015481526020016003820160009054906101000a900473ffffffffffffffffffffffffffffffffffffffff1673ffffffffffffffffffffffffffffffffffffffff1673ffffffffffffffffffffffffffffffffffffffff16815250509050919050565b61043d61043861168e565b610526565b61047c576040517f08c379a0000000000000000000000000000000000000000000000000000000008152600401610473906128cc565b60405180910390fd5b600260009054906101000a900460ff166104cb576040517f08c379a00000000000000000000000000000000000000000000000000000000081526004016104c29061288c565b60405180910390fd5b6000600260006101000a81548160ff0219169083151502179055507f5db9ee0a495bf2e6ff9c91a7834c1ba4fdd244a5e8aa4e537bd38aeae4b073aa61050f61168e565b60405161051c919061271c565b60405180910390a1565b600061053c82600161169690919063ffffffff16565b9050919050565b6000809054906101000a900460ff16610591576040517f08c379a000000000000000000000000000000000000000000000000000000000815260040161058890612a2c565b60405180910390fd5b60008060006101000a81548160ff021916908315150217905550600260009054906101000a900460ff16156105fb576040517f08c379a00000000000000000000000000000000000000000000000000000000081526004016105f29061294c565b60405180910390fd5b6000600560008381526020019081526020016000209050610689338260030160009054906101000a900473ffffffffffffffffffffffffffffffffffffffff168360020154600760009054906101000a900473ffffffffffffffffffffffffffffffffffffffff1673ffffffffffffffffffffffffffffffffffffffff1661175e909392919063ffffffff16565b600860009054906101000a900473ffffffffffffffffffffffffffffffffffffffff1673ffffffffffffffffffffffffffffffffffffffff166342842e0e303384600101546040518463ffffffff1660e01b81526004016106ec9392919061276e565b600060405180830381600087803b15801561070657600080fd5b505af115801561071a573d6000803e3d6000fd5b5050505060056000838152602001908152602001600020600080820160009055600182016000905560028201600090556003820160006101000a81549073ffffffffffffffffffffffffffffffffffffffff0219169055505061077d6004611800565b7f80ac1c7de820effd6f8f75c4042b1bbf34e9045643a909387acda596ff47a7a2826040516107ac9190612a87565b60405180910390a15060016000806101000a81548160ff02191690831515021790555050565b6000600260009054906101000a900460ff16905090565b6107f96107f461168e565b611823565b565b610803610a82565b610842576040517f08c379a00000000000000000000000000000000000000000000000000000000081526004016108399061298c565b60405180910390fd5b600073ffffffffffffffffffffffffffffffffffffffff16600260019054906101000a900473ffffffffffffffffffffffffffffffffffffffff1673ffffffffffffffffffffffffffffffffffffffff167f8be0079c531659141344cd1fd0a4f28419497f9722a3daafe3b4186f6b6457e060405160405180910390a36000600260016101000a81548173ffffffffffffffffffffffffffffffffffffffff021916908373ffffffffffffffffffffffffffffffffffffffff160217905550565b61091361090e61168e565b610526565b610952576040517f08c379a0000000000000000000000000000000000000000000000000000000008152600401610949906128cc565b60405180910390fd5b61095b8161187d565b50565b61096e61096961168e565b610526565b6109ad576040517f08c379a00000000000000000000000000000000000000000000000000000000081526004016109a4906128cc565b60405180910390fd5b600260009054906101000a900460ff16156109fd576040517f08c379a00000000000000000000000000000000000000000000000000000000081526004016109f49061294c565b60405180910390fd5b6001600260006101000a81548160ff0219169083151502179055507f62e78cea01bee320cd4e420270b5ea74000d11b0c9f74754ebdbfc544b05a258610a4161168e565b604051610a4e919061271c565b60405180910390a1565b6000600260019054906101000a900473ffffffffffffffffffffffffffffffffffffffff16905090565b6000600260019054906101000a900473ffffffffffffffffffffffffffffffffffffffff1673ffffffffffffffffffffffffffffffffffffffff16610ac561168e565b73ffffffffffffffffffffffffffffffffffffffff1614905090565b60606000610aef60046118d7565b90506000610afd60036118d7565b9050606082604051908082528060200260200182016040528015610b3b57816020015b610b28611e1a565b815260200190600190039081610b205790505b509050600080905060008090505b83811015610c8457600073ffffffffffffffffffffffffffffffffffffffff166005600083815260200190815260200160002060030160009054906101000a900473ffffffffffffffffffffffffffffffffffffffff1673ffffffffffffffffffffffffffffffffffffffff1614610c7757610bc3611ddc565b600560008381526020019081526020016000206040518060800160405290816000820154815260200160018201548152602001600282015481526020016003820160009054906101000a900473ffffffffffffffffffffffffffffffffffffffff1673ffffffffffffffffffffffffffffffffffffffff1673ffffffffffffffffffffffffffffffffffffffff1681525050905080848481518110610c6457fe5b6020026020010181905250600183019250505b8080600101915050610b49565b508194505050505090565b6000809054906101000a900460ff16610cdd576040517f08c379a0000000000000000000000000000000000000000000000000000000008152600401610cd490612a2c565b60405180910390fd5b60008060006101000a81548160ff021916908315150217905550600260009054906101000a900460ff1615610d47576040517f08c379a0000000000000000000000000000000000000000000000000000000008152600401610d3e9061294c565b60405180910390fd5b60008111610d8a576040517f08c379a0000000000000000000000000000000000000000000000000000000008152600401610d819061290c565b60405180910390fd5b6000600860009054906101000a900473ffffffffffffffffffffffffffffffffffffffff1673ffffffffffffffffffffffffffffffffffffffff16632f3e064d846040518263ffffffff1660e01b8152600401610de79190612a87565b60206040518083038186803b158015610dff57600080fd5b505afa158015610e13573d6000803e3d6000fd5b505050506040513d601f19601f82011682018060405250610e379190810190611ff6565b905081811015610e7c576040517f08c379a0000000000000000000000000000000000000000000000000000000008152600401610e73906129ec565b60405180910390fd5b6000610e8860036118d7565b9050610e9460036118e5565b610e9e60046118e5565b60405180608001604052808281526020018581526020018481526020013373ffffffffffffffffffffffffffffffffffffffff168152506005600083815260200190815260200160002060008201518160000155602082015181600101556040820151816002015560608201518160030160006101000a81548173ffffffffffffffffffffffffffffffffffffffff021916908373ffffffffffffffffffffffffffffffffffffffff160217905550905050600860009054906101000a900473ffffffffffffffffffffffffffffffffffffffff1673ffffffffffffffffffffffffffffffffffffffff166342842e0e3330876040518463ffffffff1660e01b8152600401610faf93929190612737565b600060405180830381600087803b158015610fc957600080fd5b505af1158015610fdd573d6000803e3d6000fd5b505050507f24e806622470526288759fd479d73aa26863ca7d06f1aec70f548f3d9c86d879816040516110109190612a87565b60405180910390a1505060016000806101000a81548160ff0219169083151502179055505050565b600660009054906101000a900473ffffffffffffffffffffffffffffffffffffffff1681565b60006005600083815260200190815260200160002090503373ffffffffffffffffffffffffffffffffffffffff168160030160009054906101000a900473ffffffffffffffffffffffffffffffffffffffff1673ffffffffffffffffffffffffffffffffffffffff1614611107576040517f08c379a00000000000000000000000000000000000000000000000000000000081526004016110fe906129cc565b60405180910390fd5b600860009054906101000a900473ffffffffffffffffffffffffffffffffffffffff1673ffffffffffffffffffffffffffffffffffffffff166342842e0e308360030160009054906101000a900473ffffffffffffffffffffffffffffffffffffffff1684600101546040518463ffffffff1660e01b815260040161118e939291906127a5565b600060405180830381600087803b1580156111a857600080fd5b505af11580156111bc573d6000803e3d6000fd5b5050505060056000838152602001908152602001600020600080820160009055600182016000905560028201600090556003820160006101000a81549073ffffffffffffffffffffffffffffffffffffffff0219169055505061121f6004611800565b7f1200711b6f8b57257f9fe3aa66400323f3fdab4a308661e85a1cddb32aebfd638260405161124e9190612a87565b60405180910390a15050565b611262610a82565b6112a1576040517f08c379a00000000000000000000000000000000000000000000000000000000081526004016112989061298c565b60405180910390fd5b6112aa816118fb565b50565b6112b5610a82565b6112f4576040517f08c379a00000000000000000000000000000000000000000000000000000000081526004016112eb9061298c565b60405180910390fd5b600061130060036118d7565b905060008090505b818110156114a6576000600560008381526020019081526020016000209050600073ffffffffffffffffffffffffffffffffffffffff168160030160009054906101000a900473ffffffffffffffffffffffffffffffffffffffff1673ffffffffffffffffffffffffffffffffffffffff161461149857600860009054906101000a900473ffffffffffffffffffffffffffffffffffffffff1673ffffffffffffffffffffffffffffffffffffffff166342842e0e308360030160009054906101000a900473ffffffffffffffffffffffffffffffffffffffff1684600101546040518463ffffffff1660e01b8152600401611406939291906127a5565b600060405180830381600087803b15801561142057600080fd5b505af1158015611434573d6000803e3d6000fd5b5050505060056000838152602001908152602001600020600080820160009055600182016000905560028201600090556003820160006101000a81549073ffffffffffffffffffffffffffffffffffffffff021916905550506114976004611800565b5b508080600101915050611308565b5050565b600081116114ed576040517f08c379a00000000000000000000000000000000000000000000000000000000081526004016114e49061290c565b60405180910390fd5b60006005600084815260200190815260200160002090506000600860009054906101000a900473ffffffffffffffffffffffffffffffffffffffff1673ffffffffffffffffffffffffffffffffffffffff16632f3e064d83600101546040518263ffffffff1660e01b81526004016115659190612a87565b60206040518083038186803b15801561157d57600080fd5b505afa158015611591573d6000803e3d6000fd5b505050506040513d601f19601f820116820180604052506115b59190810190611ff6565b9050828110156115fa576040517f08c379a00000000000000000000000000000000000000000000000000000000081526004016115f1906129ec565b60405180910390fd5b8282600201819055507fa0f1665b7b659537b52deec61ea64d134a3bccda74c7f4e79f2246e7a8187a8a8484604051611634929190612aa2565b60405180910390a150505050565b600760009054906101000a900473ffffffffffffffffffffffffffffffffffffffff1681565b600860009054906101000a900473ffffffffffffffffffffffffffffffffffffffff1681565b600033905090565b60008073ffffffffffffffffffffffffffffffffffffffff168273ffffffffffffffffffffffffffffffffffffffff161415611707576040517f08c379a00000000000000000000000000000000000000000000000000000000081526004016116fe906129ac565b60405180910390fd5b8260000160008373ffffffffffffffffffffffffffffffffffffffff1673ffffffffffffffffffffffffffffffffffffffff16815260200190815260200160002060009054906101000a900460ff16905092915050565b6117fa848573ffffffffffffffffffffffffffffffffffffffff166323b872dd905060e01b858585604051602401611798939291906127a5565b604051602081830303815290604052907bffffffffffffffffffffffffffffffffffffffffffffffffffffffff19166020820180517bffffffffffffffffffffffffffffffffffffffffffffffffffffffff8381831617835250505050611a2b565b50505050565b61181860018260000154611b9d90919063ffffffff16565b816000018190555050565b611837816001611be790919063ffffffff16565b8073ffffffffffffffffffffffffffffffffffffffff167fcd265ebaf09df2871cc7bd4133404a235ba12eff2041bb89d9c714a2621c7c7e60405160405180910390a250565b611891816001611c8e90919063ffffffff16565b8073ffffffffffffffffffffffffffffffffffffffff167f6719d08c1888103bea251a4ed56406bd0c3e69723c8a1686e017e7bbe159b6f860405160405180910390a250565b600081600001549050919050565b6001816000016000828254019250508190555050565b600073ffffffffffffffffffffffffffffffffffffffff168173ffffffffffffffffffffffffffffffffffffffff16141561196b576040517f08c379a0000000000000000000000000000000000000000000000000000000008152600401611962906128ec565b60405180910390fd5b8073ffffffffffffffffffffffffffffffffffffffff16600260019054906101000a900473ffffffffffffffffffffffffffffffffffffffff1673ffffffffffffffffffffffffffffffffffffffff167f8be0079c531659141344cd1fd0a4f28419497f9722a3daafe3b4186f6b6457e060405160405180910390a380600260016101000a81548173ffffffffffffffffffffffffffffffffffffffff021916908373ffffffffffffffffffffffffffffffffffffffff16021790555050565b611a4a8273ffffffffffffffffffffffffffffffffffffffff16611d36565b611a89576040517f08c379a0000000000000000000000000000000000000000000000000000000008152600401611a8090612a4c565b60405180910390fd5b600060608373ffffffffffffffffffffffffffffffffffffffff1683604051611ab291906126ea565b6000604051808303816000865af19150503d8060008114611aef576040519150601f19603f3d011682016040523d82523d6000602084013e611af4565b606091505b509150915081611b39576040517f08c379a0000000000000000000000000000000000000000000000000000000008152600401611b309061292c565b60405180910390fd5b600081511115611b975780806020019051611b579190810190611fa4565b611b96576040517f08c379a0000000000000000000000000000000000000000000000000000000008152600401611b8d90612a0c565b60405180910390fd5b5b50505050565b6000611bdf83836040518060400160405280601e81526020017f536166654d6174683a207375627472616374696f6e206f766572666c6f770000815250611d81565b905092915050565b611bf18282611696565b611c30576040517f08c379a0000000000000000000000000000000000000000000000000000000008152600401611c279061296c565b60405180910390fd5b60008260000160008373ffffffffffffffffffffffffffffffffffffffff1673ffffffffffffffffffffffffffffffffffffffff16815260200190815260200160002060006101000a81548160ff0219169083151502179055505050565b611c988282611696565b15611cd8576040517f08c379a0000000000000000000000000000000000000000000000000000000008152600401611ccf906128ac565b60405180910390fd5b60018260000160008373ffffffffffffffffffffffffffffffffffffffff1673ffffffffffffffffffffffffffffffffffffffff16815260200190815260200160002060006101000a81548160ff0219169083151502179055505050565b60008060007fc5d2460186f7233c927e7db2dcc703c0e500b653ca82273b7bfad8045d85a47060001b9050833f9150808214158015611d7857506000801b8214155b92505050919050565b6000838311158290611dc9576040517f08c379a0000000000000000000000000000000000000000000000000000000008152600401611dc0919061286a565b60405180910390fd5b5060008385039050809150509392505050565b6040518060800160405280600081526020016000815260200160008152602001600073ffffffffffffffffffffffffffffffffffffffff1681525090565b6040518060800160405280600081526020016000815260200160008152602001600073ffffffffffffffffffffffffffffffffffffffff1681525090565b600081359050611e6781612cd4565b92915050565b600081519050611e7c81612ceb565b92915050565b600082601f830112611e9357600080fd5b8135611ea6611ea182612af8565b612acb565b91508082526020830160208301858383011115611ec257600080fd5b611ecd838284612c81565b50505092915050565b600081359050611ee581612d02565b92915050565b600081519050611efa81612d02565b92915050565b600060208284031215611f1257600080fd5b6000611f2084828501611e58565b91505092915050565b60008060008060808587031215611f3f57600080fd5b6000611f4d87828801611e58565b9450506020611f5e87828801611e58565b9350506040611f6f87828801611ed6565b925050606085013567ffffffffffffffff811115611f8c57600080fd5b611f9887828801611e82565b91505092959194509250565b600060208284031215611fb657600080fd5b6000611fc484828501611e6d565b91505092915050565b600060208284031215611fdf57600080fd5b6000611fed84828501611ed6565b91505092915050565b60006020828403121561200857600080fd5b600061201684828501611eeb565b91505092915050565b6000806040838503121561203257600080fd5b600061204085828601611ed6565b925050602061205185828601611ed6565b9150509250929050565b60006120678383612677565b60808301905092915050565b61207c81612c03565b82525050565b61208b81612b8f565b82525050565b61209a81612b8f565b82525050565b60006120ab82612b34565b6120b58185612b62565b93506120c083612b24565b8060005b838110156120f15781516120d8888261205b565b97506120e383612b55565b9250506001810190506120c4565b5085935050505092915050565b61210781612ba1565b82525050565b61211681612bad565b82525050565b600061212782612b3f565b6121318185612b73565b9350612141818560208601612c90565b80840191505092915050565b61215681612c15565b82525050565b61216581612c39565b82525050565b600061217682612b4a565b6121808185612b7e565b9350612190818560208601612c90565b61219981612cc3565b840191505092915050565b60006121b1601483612b7e565b91507f5061757361626c653a206e6f74207061757365640000000000000000000000006000830152602082019050919050565b60006121f1601f83612b7e565b91507f526f6c65733a206163636f756e7420616c72656164792068617320726f6c65006000830152602082019050919050565b6000612231603083612b7e565b91507f506175736572526f6c653a2063616c6c657220646f6573206e6f74206861766560008301527f207468652050617573657220726f6c65000000000000000000000000000000006020830152604082019050919050565b6000612297602683612b7e565b91507f4f776e61626c653a206e6577206f776e657220697320746865207a65726f206160008301527f64647265737300000000000000000000000000000000000000000000000000006020830152604082019050919050565b60006122fd601983612b7e565b91507f5072696365206d757374206265206d6f7265207468616e2030000000000000006000830152602082019050919050565b600061233d602083612b7e565b91507f5361666545524332303a206c6f772d6c6576656c2063616c6c206661696c65646000830152602082019050919050565b600061237d601083612b7e565b91507f5061757361626c653a20706175736564000000000000000000000000000000006000830152602082019050919050565b60006123bd602183612b7e565b91507f526f6c65733a206163636f756e7420646f6573206e6f74206861766520726f6c60008301527f65000000000000000000000000000000000000000000000000000000000000006020830152604082019050919050565b6000612423602083612b7e565b91507f4f776e61626c653a2063616c6c6572206973206e6f7420746865206f776e65726000830152602082019050919050565b6000612463602283612b7e565b91507f526f6c65733a206163636f756e7420697320746865207a65726f20616464726560008301527f73730000000000000000000000000000000000000000000000000000000000006020830152604082019050919050565b60006124c9601983612b7e565b91507f4e4654206e6f742066726f6d2074686973206163636f756e74000000000000006000830152602082019050919050565b6000612509601083612b7e565b91507f4e656564206d6f726520736869656c64000000000000000000000000000000006000830152602082019050919050565b6000612549602a83612b7e565b91507f5361666545524332303a204552433230206f7065726174696f6e20646964206e60008301527f6f742073756363656564000000000000000000000000000000000000000000006020830152604082019050919050565b60006125af601f83612b7e565b91507f5265656e7472616e637947756172643a207265656e7472616e742063616c6c006000830152602082019050919050565b60006125ef601f83612b7e565b91507f5361666545524332303a2063616c6c20746f206e6f6e2d636f6e7472616374006000830152602082019050919050565b60808201600082015161263860008501826126cc565b50602082015161264b60208501826126cc565b50604082015161265e60408501826126cc565b5060608201516126716060850182612082565b50505050565b60808201600082015161268d60008501826126cc565b5060208201516126a060208501826126cc565b5060408201516126b360408501826126cc565b5060608201516126c66060850182612082565b50505050565b6126d581612bf9565b82525050565b6126e481612bf9565b82525050565b60006126f6828461211c565b915081905092915050565b60006020820190506127166000830184612091565b92915050565b60006020820190506127316000830184612073565b92915050565b600060608201905061274c6000830186612073565b6127596020830185612091565b61276660408301846126db565b949350505050565b60006060820190506127836000830186612091565b6127906020830185612073565b61279d60408301846126db565b949350505050565b60006060820190506127ba6000830186612091565b6127c76020830185612091565b6127d460408301846126db565b949350505050565b600060208201905081810360008301526127f681846120a0565b905092915050565b600060208201905061281360008301846120fe565b92915050565b600060208201905061282e600083018461210d565b92915050565b6000602082019050612849600083018461214d565b92915050565b6000602082019050612864600083018461215c565b92915050565b60006020820190508181036000830152612884818461216b565b905092915050565b600060208201905081810360008301526128a5816121a4565b9050919050565b600060208201905081810360008301526128c5816121e4565b9050919050565b600060208201905081810360008301526128e581612224565b9050919050565b600060208201905081810360008301526129058161228a565b9050919050565b60006020820190508181036000830152612925816122f0565b9050919050565b6000602082019050818103600083015261294581612330565b9050919050565b6000602082019050818103600083015261296581612370565b9050919050565b60006020820190508181036000830152612985816123b0565b9050919050565b600060208201905081810360008301526129a581612416565b9050919050565b600060208201905081810360008301526129c581612456565b9050919050565b600060208201905081810360008301526129e5816124bc565b9050919050565b60006020820190508181036000830152612a05816124fc565b9050919050565b60006020820190508181036000830152612a258161253c565b9050919050565b60006020820190508181036000830152612a45816125a2565b9050919050565b60006020820190508181036000830152612a65816125e2565b9050919050565b6000608082019050612a816000830184612622565b92915050565b6000602082019050612a9c60008301846126db565b92915050565b6000604082019050612ab760008301856126db565b612ac460208301846126db565b9392505050565b6000604051905081810181811067ffffffffffffffff82111715612aee57600080fd5b8060405250919050565b600067ffffffffffffffff821115612b0f57600080fd5b601f19601f8301169050602081019050919050565b6000819050602082019050919050565b600081519050919050565b600081519050919050565b600081519050919050565b6000602082019050919050565b600082825260208201905092915050565b600081905092915050565b600082825260208201905092915050565b6000612b9a82612bd9565b9050919050565b60008115159050919050565b60007fffffffff0000000000000000000000000000000000000000000000000000000082169050919050565b600073ffffffffffffffffffffffffffffffffffffffff82169050919050565b6000819050919050565b6000612c0e82612c5d565b9050919050565b6000612c2082612c27565b9050919050565b6000612c3282612bd9565b9050919050565b6000612c4482612c4b565b9050919050565b6000612c5682612bd9565b9050919050565b6000612c6882612c6f565b9050919050565b6000612c7a82612bd9565b9050919050565b82818337600083830152505050565b60005b83811015612cae578082015181840152602081019050612c93565b83811115612cbd576000848401525b50505050565b6000601f19601f8301169050919050565b612cdd81612b8f565b8114612ce857600080fd5b50565b612cf481612ba1565b8114612cff57600080fd5b50565b612d0b81612bf9565b8114612d1657600080fd5b5056fea365627a7a72315820df7a7538d9b7614d1f430378534096f22bb4ddaa6412b69d742318cbe32241996c6578706572696d656e74616cf564736f6c63430005100040",
  "source": "// SPDX-License-Identifier: MIT\npragma solidity >=0.4.21 <0.7.0;\npragma experimental ABIEncoderV2;\n\nimport \"@openzeppelin/contracts/token/ERC20/ERC20.sol\";\nimport \"@openzeppelin/contracts/token/ERC20/SafeERC20.sol\";\nimport \"@openzeppelin/contracts/utils/ReentrancyGuard.sol\";\nimport \"@openzeppelin/contracts/token/ERC721/ERC721.sol\";\nimport \"@openzeppelin/contracts/drafts/Counters.sol\";\nimport \"@openzeppelin/contracts/token/ERC721/IERC721.sol\";\nimport \"@openzeppelin/contracts/token/ERC721/IERC721Receiver.sol\";\nimport \"@openzeppelin/contracts/math/SafeMath.sol\";\nimport \"@openzeppelin/contracts/lifecycle/Pausable.sol\";\nimport \"@openzeppelin/contracts/ownership/Ownable.sol\";\nimport \"../interfaces/IERC721Shield.sol\";\n\ncontract ShieldMarketplace is ReentrancyGuard, IERC721Receiver, Pausable, Ownable {\n  struct ShieldMarketItem {\n    uint256 marketId;\n    uint256 contractTokenId;\n    uint256 price;\n    address seller;\n  }\n  using SafeMath for uint256;\n  using SafeERC20 for IERC20;\n  using Counters for Counters.Counter;\n  Counters.Counter private _marketItemId;\n  Counters.Counter private _activeItems;\n  mapping(uint256 => ShieldMarketItem) private _idToMarketItem;\n\n  IERC20 public forgeTokenContract;\n  IERC20 public shieldTokenContract;\n  IERC721Shield public shieldNFTContract;\n\n  constructor(address _shieldTokenContract, address _shieldNFTContract, address _forgeTokenContract) public {\n    forgeTokenContract = IERC20(_forgeTokenContract);\n    shieldTokenContract = IERC20(_shieldTokenContract);\n    shieldNFTContract = IERC721Shield(_shieldNFTContract);\n  }\n\n  function onERC721Received(address _operator, address _from, uint256 _tokenId, bytes memory _data) public returns(bytes4) {\n    return 0x150b7a02;\n  }\n\n  /* ========== VIEWS ========== */\n  function marketItem(uint256 id) external view returns(ShieldMarketItem memory) {\n    return _idToMarketItem[id];\n  }\n\n  function marketItemList() external view returns(ShieldMarketItem[] memory) {\n    uint256 listLength = _activeItems.current();\n    uint256 currentId = _marketItemId.current();\n    ShieldMarketItem[] memory items = new ShieldMarketItem[](listLength);\n    uint256 currentIndex = 0;\n    for (uint256 i = 0; i < currentId; i++) {\n      if (_idToMarketItem[i].seller != address(0)) {\n        ShieldMarketItem memory currentItem = _idToMarketItem[i];\n        items[currentIndex] = currentItem;\n        currentIndex += 1;\n      }\n    }\n    return items;\n  }\n\n  /* ========== MUTATIVE FUNCTIONS ========== */\n  function buyNFT(uint256 id) external nonReentrant whenNotPaused {\n    ShieldMarketItem storage item = _idToMarketItem[id];\n    // require(item.seller != msg.sender, \"Can not buy your own NFT\"); Removed for testing purposes\n    shieldTokenContract.safeTransferFrom(msg.sender, item.seller, item.price);\n    shieldNFTContract.safeTransferFrom(address(this), msg.sender, item.contractTokenId);\n    delete _idToMarketItem[id];\n    _activeItems.decrement();\n    emit BoughtItem(id);\n  }\n\n  function removeNFT(uint256 id) external {\n    ShieldMarketItem storage item = _idToMarketItem[id];\n    require(item.seller == msg.sender, \"NFT not from this account\");\n    shieldNFTContract.safeTransferFrom(address(this), item.seller, item.contractTokenId);\n    delete _idToMarketItem[id];\n    _activeItems.decrement();\n    emit RemovedItem(id);\n  }\n\n  function addNFT(uint256 contractTokenId, uint256 price) external nonReentrant whenNotPaused {\n    require(price > 0, \"Price must be more than 0\");\n    uint256 currentShieldValue = shieldNFTContract.tokenShieldValue(contractTokenId);\n    require(currentShieldValue >= price, \"Need more shield\");\n\n    uint256 itemId = _marketItemId.current();\n    _marketItemId.increment();\n    _activeItems.increment();\n  \n    _idToMarketItem[itemId] =  ShieldMarketItem(\n      itemId,\n      contractTokenId,\n      price,\n      msg.sender\n    );\n\n    shieldNFTContract.safeTransferFrom(msg.sender, address(this), contractTokenId);\n    emit AddedItem(itemId);\n  }\n\n  function setPrice(uint256 id, uint256 price) external {\n    require(price > 0, \"Price must be more than 0\");\n    ShieldMarketItem storage item = _idToMarketItem[id];\n    uint256 currentShieldValue = shieldNFTContract.tokenShieldValue(item.contractTokenId);\n    require(currentShieldValue >= price, \"Need more shield\");\n    item.price = price;\n    emit PriceSet(id, price);\n  }\n\n  function cleanAll() external onlyOwner {\n    uint256 currentId = _marketItemId.current();\n    for (uint256 i = 0; i < currentId; i++) {\n      ShieldMarketItem storage item = _idToMarketItem[i];\n      if (item.seller != address(0)) {\n        shieldNFTContract.safeTransferFrom(address(this), item.seller, item.contractTokenId);\n        delete _idToMarketItem[i];\n        _activeItems.decrement();\n      }\n    }\n  }\n\n  /* ========== INTERNAL FUNCTIONS ============ */\n\n  /* ========== EVENTS ========== */\n  event AddedItem(uint256 itemId);\n  event RemovedItem(uint256 itemId);\n  event BoughtItem(uint256 itemId);\n  event PriceSet(uint256 itemId, uint256 price);\n}\n",
  "sourcePath": "P:\\trabajo\\PKN\\Crypto\\Ring Ecosystem\\contracts\\marketplace\\ShieldMarketplace.sol",
  "compiler": {
    "name": "solc",
    "version": "0.5.16+commit.9c3226ce.Emscripten.clang"
  },
  "schemaVersion": "3.4.5",
  "updatedAt": "2022-04-01T07:11:46.862Z",
  "networkType": "ethereum",
  "devdoc": {
    "methods": {
      "isOwner()": {
        "details": "Returns true if the caller is the current owner."
      },
      "owner()": {
        "details": "Returns the address of the current owner."
      },
      "pause()": {
        "details": "Called by a pauser to pause, triggers stopped state."
      },
      "paused()": {
        "details": "Returns true if the contract is paused, and false otherwise."
      },
      "renounceOwnership()": {
        "details": "Leaves the contract without owner. It will not be possible to call `onlyOwner` functions anymore. Can only be called by the current owner.     * NOTE: Renouncing ownership will leave the contract without an owner, thereby removing any functionality that is only available to the owner."
      },
      "transferOwnership(address)": {
        "details": "Transfers ownership of the contract to a new account (`newOwner`). Can only be called by the current owner."
      },
      "unpause()": {
        "details": "Called by a pauser to unpause, returns to normal state."
      }
    }
  },
  "userdoc": {
    "methods": {}
  }
}